{
    "contractName": "Lottery",
    "abi": [
        {
            "inputs": [
                {
                    "internalType": "uint256",
                    "name": "",
                    "type": "uint256"
                }
            ],
            "name": "participants",
            "outputs": [
                {
                    "internalType": "string",
                    "name": "username",
                    "type": "string"
                },
                {
                    "internalType": "address",
                    "name": "account",
                    "type": "address"
                }
            ],
            "stateMutability": "view",
            "type": "function"
        },
        {
            "inputs": [],
            "name": "winner",
            "outputs": [
                {
                    "internalType": "string",
                    "name": "username",
                    "type": "string"
                },
                {
                    "internalType": "address",
                    "name": "account",
                    "type": "address"
                }
            ],
            "stateMutability": "view",
            "type": "function"
        },
        {
            "inputs": [
                {
                    "internalType": "string",
                    "name": "_username",
                    "type": "string"
                }
            ],
            "name": "enter",
            "outputs": [],
            "stateMutability": "payable",
            "type": "function"
        },
        {
            "inputs": [],
            "name": "pickWinner",
            "outputs": [],
            "stateMutability": "nonpayable",
            "type": "function"
        },
        {
            "inputs": [],
            "name": "getWinner",
            "outputs": [
                {
                    "internalType": "string",
                    "name": "",
                    "type": "string"
                },
                {
                    "internalType": "address",
                    "name": "",
                    "type": "address"
                }
            ],
            "stateMutability": "view",
            "type": "function"
        },
        {
            "inputs": [],
            "name": "getParticipants",
            "outputs": [
                {
                    "components": [
                        {
                            "internalType": "string",
                            "name": "username",
                            "type": "string"
                        },
                        {
                            "internalType": "address",
                            "name": "account",
                            "type": "address"
                        }
                    ],
                    "internalType": "struct Lottery.Participant[]",
                    "name": "",
                    "type": "tuple[]"
                }
            ],
            "stateMutability": "view",
            "type": "function"
        }
    ],
    "bytecode": "0x608060405234801561001057600080fd5b50611096806100206000396000f3fe6080604052600436106100555760003560e01c806335c1d3491461005a5780635aa68ac0146100985780635d495aea146100c35780638e7ea5b2146100da5780639d4ff8ad14610106578063dfbf53ae14610122575b600080fd5b34801561006657600080fd5b50610081600480360381019061007c9190610a46565b61014e565b60405161008f929190610d38565b60405180910390f35b3480156100a457600080fd5b506100ad61022a565b6040516100ba9190610d16565b60405180910390f35b3480156100cf57600080fd5b506100d8610371565b005b3480156100e657600080fd5b506100ef6104dd565b6040516100fd929190610d38565b60405180910390f35b610120600480360381019061011b9190610a05565b61059f565b005b34801561012e57600080fd5b506101376106ec565b604051610145929190610d38565b60405180910390f35b6000818154811061015e57600080fd5b906000526020600020906002020160009150905080600001805461018190610f0d565b80601f01602080910402602001604051908101604052809291908181526020018280546101ad90610f0d565b80156101fa5780601f106101cf576101008083540402835291602001916101fa565b820191906000526020600020905b8154815290600101906020018083116101dd57829003601f168201915b5050505050908060010160009054906101000a900473ffffffffffffffffffffffffffffffffffffffff16905082565b60606000805480602002602001604051908101604052809291908181526020016000905b82821015610368578382906000526020600020906002020160405180604001604052908160008201805461028190610f0d565b80601f01602080910402602001604051908101604052809291908181526020018280546102ad90610f0d565b80156102fa5780601f106102cf576101008083540402835291602001916102fa565b820191906000526020600020905b8154815290600101906020018083116102dd57829003601f168201915b505050505081526020016001820160009054906101000a900473ffffffffffffffffffffffffffffffffffffffff1673ffffffffffffffffffffffffffffffffffffffff1673ffffffffffffffffffffffffffffffffffffffff16815250508152602001906001019061024e565b50505050905090565b60008080549050116103b8576040517f08c379a00000000000000000000000000000000000000000000000000000000081526004016103af90610da8565b60405180910390fd5b600080805490504244336040516020016103d493929190610cd9565b6040516020818303038152906040528051906020012060001c6103f79190610f6d565b905060008181548110610433577f4e487b7100000000000000000000000000000000000000000000000000000000600052603260045260246000fd5b90600052602060002090600202016001600082018160000190805461045790610f0d565b6104629291906107a6565b506001820160009054906101000a900473ffffffffffffffffffffffffffffffffffffffff168160010160006101000a81548173ffffffffffffffffffffffffffffffffffffffff021916908373ffffffffffffffffffffffffffffffffffffffff1602179055509050506000806104da9190610833565b50565b6060600060016000016001800160009054906101000a900473ffffffffffffffffffffffffffffffffffffffff1681805461051790610f0d565b80601f016020809104026020016040519081016040528092919081815260200182805461054390610f0d565b80156105905780601f1061056557610100808354040283529160200191610590565b820191906000526020600020905b81548152906001019060200180831161057357829003601f168201915b50505050509150915091509091565b60008151116105e3576040517f08c379a00000000000000000000000000000000000000000000000000000000081526004016105da90610d68565b60405180910390fd5b662386f26fc1000034101561062d576040517f08c379a000000000000000000000000000000000000000000000000000000000815260040161062490610d88565b60405180910390fd5b600060405180604001604052808381526020013373ffffffffffffffffffffffffffffffffffffffff168152509080600181540180825580915050600190039060005260206000209060020201600090919091909150600082015181600001908051906020019061069f929190610857565b5060208201518160010160006101000a81548173ffffffffffffffffffffffffffffffffffffffff021916908373ffffffffffffffffffffffffffffffffffffffff160217905550505050565b60018060000180546106fd90610f0d565b80601f016020809104026020016040519081016040528092919081815260200182805461072990610f0d565b80156107765780601f1061074b57610100808354040283529160200191610776565b820191906000526020600020905b81548152906001019060200180831161075957829003601f168201915b5050505050908060010160009054906101000a900473ffffffffffffffffffffffffffffffffffffffff16905082565b8280546107b290610f0d565b90600052602060002090601f0160209004810192826107d45760008555610822565b82601f106107e55780548555610822565b8280016001018555821561082257600052602060002091601f016020900482015b82811115610821578254825591600101919060010190610806565b5b50905061082f91906108dd565b5090565b508054600082556002029060005260206000209081019061085491906108fa565b50565b82805461086390610f0d565b90600052602060002090601f01602090048101928261088557600085556108cc565b82601f1061089e57805160ff19168380011785556108cc565b828001600101855582156108cc579182015b828111156108cb5782518255916020019190600101906108b0565b5b5090506108d991906108dd565b5090565b5b808211156108f65760008160009055506001016108de565b5090565b5b8082111561094457600080820160006109149190610948565b6001820160006101000a81549073ffffffffffffffffffffffffffffffffffffffff0219169055506002016108fb565b5090565b50805461095490610f0d565b6000825580601f106109665750610985565b601f01602090049060005260206000209081019061098491906108dd565b5b50565b600061099b61099684610df9565b610dc8565b9050828152602081018484840111156109b357600080fd5b6109be848285610ecb565b509392505050565b600082601f8301126109d757600080fd5b81356109e7848260208601610988565b91505092915050565b6000813590506109ff81611049565b92915050565b600060208284031215610a1757600080fd5b600082013567ffffffffffffffff811115610a3157600080fd5b610a3d848285016109c6565b91505092915050565b600060208284031215610a5857600080fd5b6000610a66848285016109f0565b91505092915050565b6000610a7b8383610c85565b905092915050565b610a8c81610e8f565b82525050565b610a9b81610e8f565b82525050565b610ab2610aad82610e8f565b610f3f565b82525050565b6000610ac382610e39565b610acd8185610e5c565b935083602082028501610adf85610e29565b8060005b85811015610b1b5784840389528151610afc8582610a6f565b9450610b0783610e4f565b925060208a01995050600181019050610ae3565b50829750879550505050505092915050565b6000610b3882610e44565b610b428185610e6d565b9350610b52818560208601610eda565b610b5b8161102b565b840191505092915050565b6000610b7182610e44565b610b7b8185610e7e565b9350610b8b818560208601610eda565b610b948161102b565b840191505092915050565b6000610bac601883610e7e565b91507f557365726e616d652063616e6e6f7420626520656d70747900000000000000006000830152602082019050919050565b6000610bec602283610e7e565b91507f4d696e696d756d20302e30312045544820726571756972656420746f20656e7460008301527f65720000000000000000000000000000000000000000000000000000000000006020830152604082019050919050565b6000610c52601e83610e7e565b91507f4e6f207061727469636970616e747320696e20746865206c6f747465727900006000830152602082019050919050565b60006040830160008301518482036000860152610ca28282610b2d565b9150506020830151610cb76020860182610a83565b508091505092915050565b610cd3610cce82610ec1565b610f63565b82525050565b6000610ce58286610cc2565b602082019150610cf58285610cc2565b602082019150610d058284610aa1565b601482019150819050949350505050565b60006020820190508181036000830152610d308184610ab8565b905092915050565b60006040820190508181036000830152610d528185610b66565b9050610d616020830184610a92565b9392505050565b60006020820190508181036000830152610d8181610b9f565b9050919050565b60006020820190508181036000830152610da181610bdf565b9050919050565b60006020820190508181036000830152610dc181610c45565b9050919050565b6000604051905081810181811067ffffffffffffffff82111715610def57610dee610ffc565b5b8060405250919050565b600067ffffffffffffffff821115610e1457610e13610ffc565b5b601f19601f8301169050602081019050919050565b6000819050602082019050919050565b600081519050919050565b600081519050919050565b6000602082019050919050565b600082825260208201905092915050565b600082825260208201905092915050565b600082825260208201905092915050565b6000610e9a82610ea1565b9050919050565b600073ffffffffffffffffffffffffffffffffffffffff82169050919050565b6000819050919050565b82818337600083830152505050565b60005b83811015610ef8578082015181840152602081019050610edd565b83811115610f07576000848401525b50505050565b60006002820490506001821680610f2557607f821691505b60208210811415610f3957610f38610fcd565b5b50919050565b6000610f4a82610f51565b9050919050565b6000610f5c8261103c565b9050919050565b6000819050919050565b6000610f7882610ec1565b9150610f8383610ec1565b925082610f9357610f92610f9e565b5b828206905092915050565b7f4e487b7100000000000000000000000000000000000000000000000000000000600052601260045260246000fd5b7f4e487b7100000000000000000000000000000000000000000000000000000000600052602260045260246000fd5b7f4e487b7100000000000000000000000000000000000000000000000000000000600052604160045260246000fd5b6000601f19601f8301169050919050565b60008160601b9050919050565b61105281610ec1565b811461105d57600080fd5b5056fea2646970667358221220f238dfd5716e33a4b07412fc15085620273f9fadca7c8164d9630e6bc355373664736f6c63430008000033",
    "immutableReferences": {},
    "source": "pragma solidity ^0.8.0;\n\ncontract Lottery {\n    struct Participant {\n        string username;\n        address account;\n    }\n\n    Participant[] public participants;\n    Participant public winner; // Store the winner here\n\n    function enter(string memory _username) public payable {\n        require(bytes(_username).length > 0, \"Username cannot be empty\");\n        require(msg.value >= 0.01 ether, \"Minimum 0.01 ETH required to enter\");\n\n        participants.push(Participant(_username, msg.sender));\n    }\n\n    function pickWinner() public {\n        require(participants.length > 0, \"No participants in the lottery\");\n\n        // Select a random winner\n        uint randomIndex = uint(keccak256(abi.encodePacked(block.timestamp, block.difficulty, msg.sender))) % participants.length;\n        winner = participants[randomIndex]; // Store winner's details\n\n        // Clear participants list for the next round\n        delete participants;\n    }\n\n    // Function to get the winner's details\n    function getWinner() public view returns (string memory, address) {\n        return (winner.username, winner.account);\n    }\n\n    function getParticipants() public view returns (Participant[] memory) {\n        return participants;\n    }\n}\n",
    "sourcePath": "/Users/yami/Documents/emi/blockchain/lottery/contracts/Lottery.sol",
    "compiler": {
        "name": "solc",
        "version": "0.8.0+commit.c7dfd78e.Emscripten.clang"
    },
    "schemaVersion": "3.4.16",
    "updatedAt": "2024-11-05T11:33:22.789Z",
    "devdoc": {
        "kind": "dev",
        "methods": {},
        "version": 1
    },
    "userdoc": {
        "kind": "user",
        "methods": {},
        "version": 1
    }
}